{
    "contractName": "HelloWorld",
    "abi": [
        {
            "inputs": [],
            "name": "getNum",
            "outputs": [
                {
                    "internalType": "uint256",
                    "name": "",
                    "type": "uint256"
                }
            ],
            "stateMutability": "view",
            "type": "function"
        },
        {
            "inputs": [
                {
                    "internalType": "uint256",
                    "name": "_num",
                    "type": "uint256"
                }
            ],
            "name": "setNum",
            "outputs": [],
            "stateMutability": "nonpayable",
            "type": "function"
        }
    ],
    "bytecode": "6080604052348015600f57600080fd5b5060ac8061001e6000396000f3fe6080604052348015600f57600080fd5b506004361060325760003560e01c806367e0badb146037578063cd16ecbf14604c575b600080fd5b60005460405190815260200160405180910390f35b605c6057366004605e565b600055565b005b600060208284031215606f57600080fd5b503591905056fea26469706673582212205cb63ba20d2ccc10cc52341b07e03d2963c3d9883feb8a0d9d49cf66f546e3bf64736f6c63430008060033",
    "sourcePath": "/home/jappan/personalProjects/blockchain-basics/contracts/HelloWorld.sol",
    "compiler": {
        "name": "solc",
        "version": "0.8.6+commit.11564f7e"
    },
    "functionHashes": {
        "getNum()": "67e0badb",
        "setNum(uint256)": "cd16ecbf"
    },
    "gasEstimates": {
        "creation": {
            "codeDepositCost": "34400",
            "executionCost": "87",
            "totalCost": "34487"
        },
        "external": {
            "getNum()": "2246",
            "setNum(uint256)": "22312"
        }
    }
}